S01500006E6578615F72656365697665722E73726563AF
S113000033C000004CC000004AC0000048C00000DB
S113001046C00000A9C1000042C0000040C000006A
S11300203EC000003CC000003AC00000B0C3000065
S113003036C0000034C0000032C0000030C00000F0
S11300402EC000002CC000002AC0000028C0000000
S113005026C0000024C0000022C0000020C0000010
S11300601EC000001CC0000011241FBECFEFD4E04E
S1130070DEBFCDBF11E0A0E0B1E0E8E7FFE002C0E1
S113008005900D92AA30B107D9F721E0AAE0B1E0BA
S113009001C01D92A731B207E1F7A2D46BC7B0CF5C
S11300A020985798569808958130910511F42E9A06
S11300B008958230910511F45D9A0895039709F427
S11300C02F9A0895559A84B1806C84B981E090E0A8
S11300D0EBDF82E090E0E8DF83E090E0E5CF089595
S11300E087B18F6387B918B8EDDFDACF089581300F
S11300F0910511F42E9808958230910511F45D98BC
S11301000895039709F42F980895449A459881E037
S113011090E0EDDF24E535E885E491E021503040BE
S113012080409040D9F700C000C000000895449872
S1130130459A82E090E0DBDF2AEA34ED8CE191E03D
S11301402150304080409040D9F700000895449AEF
S1130150459881E090E0CBDF82E090E0A5DF2FEFCF
S113016089E698E1215080409040E1F700C000000A
S113017008954498459A82E090E0B9DF81E090E0E8
S113018093DF2FEF89E698E1215080409040E1F71A
S113019000C0000008958330910529F410920301F2
S11301A01092020108958130910549F4449881E048
S11301B090E07ADF109201011092000108950297F5
S11301C021F4459882E090E06FCF089580910A0170
S11301D090910B01009799F481E090E090930B01CA
S11301E080930A0183E090E082DF2FEF84E39CE0B8
S11301F0215080409040E1F700C00000089501972D
S113020081F410920B0110920A0183E090E04CDF1C
S11302102FEF84E39CE0215080409040E1F700C040
S1130220000008958330910511F4D0CF08958130F2
S11302309105C1F48091000190910101892BF9F499
S113024081E090E0909301018093000180910A0184
S113025090910B01009711F458CF0895019779F408
S113026076CF0895029759F480910A0190910B0179
S1130270009711F45CCF0895019709F47ACF08959B
S11302804E9B04C083E090E0CDDF05C04E9903C0CF
S113029083E090E080DF189B04C081E090E0C2DF3F
S11302A005C0189903C081E090E075DF4F9B04C03E
S11302B082E090E0B7CF08954F9903C082E090E0C8
S11302C06ACF0895613069F448B121E030E0B901A2
S11302D002C0660F771F8A95E2F7CB01842B88B999
S11302E0089561110DC048B121E030E0B90102C0A8
S11302F0660F771F8A95E2F7CB018095842388B92E
S11303000895EDE6F0E0808182608083E8E6F0E025
S1130310808184608083E1E8F0E08081886080836C
S1130320EFE6F0E080818260808310920D011092EC
S11303300E0110920F0110921001109211011092EF
S113034012011092130110921401109215011092CF
S11303500C018FEF8093160151988AB189608AB994
S113036058985B9A789408951F920F920FB60F9243
S113037011242F938F939F93AF93BF93EF93FF9386
S113038099B180910D01811113C02FB7F894109287
S113039085001092840080E895E290938900809310
S11303A088002FBFE1E8F0E0808182608083E3C1B0
S11303B09695917080910D018130A9F4913099F452
S11303C02FB7F89410928500109284008CE291E08B
S11303D090938900809388002FBFE1E8F0E080814A
S11303E082608083C8C180910D01813009F041C0D1
S11303F09111BBC180918400909185008C38910546
S113040010F510920D018FEF8093160110921201D6
S113041010921301109214011092150110920E0102
S113042010920F011092100110921101E1E8F0E016
S113043080818D7F80838FB7F8941092850010920D
S113044084008FBF98C182E080930D012FB7F89488
S1130450109285001092840080EF9AE090938900B6
S1130460809388002FBFE1E8F0E080818260808380
S113047082C180910D01823009F06BC0911122C0BC
S113048010920D018FEF80931601109212011092B9
S11304901301109214011092150110920E01109282
S11304A00F011092100110921101E1E8F0E0808137
S11304B08D7F80838FB7F89410928500109284000A
S11304C08FBF59C1809184009091850088399840EC
S11304D010F510920D018FEF809316011092120106
S11304E010921301109214011092150110920E0132
S11304F010920F011092100110921101E1E8F0E046
S113050080818D7F80838FB7F8941092850010923C
S113051084008FBF30C12FB7F894109285001092D9
S113052084008CE291E090938900809388002FBF2F
S1130530E1E8F0E080818260808310920E011092E5
S11305400F01109210011092110183E080930D01AC
S113055012C180910D01833009F03FC08091840065
S1130560909185008C38910510F510920D018FEF54
S1130570809316011092120110921301109214012B
S11305801092150110920E0110920F011092100199
S113059010921101E1E8F0E080818D7F80838FB7B4
S11305A0F89410928500109284008FBFE4C02FB796
S11305B0F89410928500109284008AEA95E0909352
S11305C08900809388002FBFE1E8F0E08081826099
S11305D0808384E080930D01CEC080910D0184302E
S11305E009F0C9C08091840090918500803B9240BD
S11305F00CF44AC080911601813011F510920D015E
S11306008FEF809316011092120110921301109231
S113061014011092150110920E0110920F01109204
S1130620100110921101E1E8F0E080818D7F808358
S11306308FB7F89410928500109284008FBF9BC0EE
S1130640809116018F3F21F481E08093160177C0D9
S113065080911601811173C08FEF809316018091F0
S11306600E0190910F01A0911001B0911101880F1A
S1130670991FAA1FBB1F80930E0190930F01A09393
S11306801001B09311015BC080911601811122C049
S113069010920D018FEF80931601109212011092A7
S11306A01301109214011092150110920E01109270
S11306B00F011092100110921101E1E8F0E0808125
S11306C08D7F80838FB7F8941092850010928400F8
S11306D08FBF51C0809116018F3F19F410921601FB
S11306E02EC080911601813051F58FEF8093160151
S11306F080910E0190910F01A0911001B091110110
S1130700880F991FAA1FBB1F80930E0190930F019E
S1130710A0931001B093110180910E0190910F01EB
S1130720A0911001B09111010196A11DB11D8093FA
S11307300E0190930F01A0931001B093110183E077
S113074080930D012FB7F8941092850010928400C5
S11307508CE291E090938900809388002FBFE1E8B8
S1130760F0E080818260808306C080910D01823038
S113077009F0EFCEA7CEFF91EF91BF91AF919F917A
S11307808F912F910F900FBE0F901F9018951F926D
S11307900F920FB60F9211242F938F939F93AF93C1
S11307A0BF93EF93FF9380910D01811109C081E004
S11307B080930D01E1E8F0E080818D7F808361C04A
S11307C080910D01813041F080910D01823021F042
S11307D080910D01833011F510920D018FEF8093FC
S11307E0160110921201109213011092140110922A
S11307F0150110920E0110920F0110921001109227
S11308001101E1E8F0E080818D7F80838FB7F89457
S113081010928500109284008FBF33C080910D0127
S1130820843079F580910E0190910F01A09110010F
S1130830B09111018093120190931301A0931401BC
S1130840B093150110920E0110920F011092100135
S11308501092110181E080930C012FB7F89410924B
S113086085001092840082EF92E190938900809336
S113087088002FBFE1E8F0E08081826080831092DD
S11308800D01FF91EF91BF91AF919F918F912F91A6
S11308900F900FBE0F901F90189561E080E012CD6D
S11308A0089560E080E00ECD089560E081E00ACD17
S11308B0089581E090E0B6CC089582E090E0B2CC57
S11308C008958F929F92AF92BF92EF92FF920F93EF
S11308D01F93CF93DF93CDB7DEB728970FB6F89465
S11308E0DEBF0FBECDBFF89480901201909013012B
S11308F0A0901401B0901501809112019091130100
S1130900A0911401B0911501072E76E1B695A79533
S1130910979587957A95D1F7702DBF93AF939F9351
S11309208F930F2EF4E0EF2EF1E0FF2EF02DFF92C7
S1130930EF928E010F5F1F4F1F930F935CD0809136
S1130940120190911301A0911401B09115016894C2
S113095015F8B695A795979587951694D1F7AA2774
S1130960BB27BF93AF939F938F93FF92EF921F93F5
S11309700F9341D00FB6F894DEBF0FBECDBF84FEF7
S11309800DC0882D8F7011F488DF14C0813011F4EC
S11309901DDC10C0823071F48CDF0CC0882D8F7088
S11309A011F47FDF07C0813011F47FDF03C0823090
S11309B009F483DF789410920C01F89478942896C3
S11309C00FB6F894DEBF0FBECDBFDF91CF911F915C
S11309D00F91FF90EF90BF90AF909F908F900895EC
S11309E009D08FDC7DDB80910C01813009F469DF53
S11309F047DCF9CF0895AEE0B0E0E0E0F5E091C265
S1130A000D891E8986E08C831A8309838FEF9FE703
S1130A109E838D83AE01475E5F4F6F89788DCE01D3
S1130A20019608D0EF81F885E00FF11F10822E9611
S1130A30E4E093C2ACE0B0E0EFE1F5E064C27C0135
S1130A406B018A01FC0117821682838181FFB0C188
S1130A50CE0101964C01F7019381F60193FD859136
S1130A6093FF81916F01882309F49EC1853239F483
S1130A7093FD859193FF81916F01853221F4B70134
S1130A8090E0B1D1E8CF512C312C20E02032A0F4F9
S1130A908B3269F030F4803259F0833269F420618A
S1130AA02CC08D3239F0803339F4216026C02260A5
S1130AB0246023C0286021C027FD27C030ED380FF3
S1130AC03A3078F426FF06C0FAE05F9E300D112418
S1130AD0532E13C08AE0389E300D1124332E206229
S1130AE00CC08E3221F426FD5FC1206406C08C3612
S1130AF011F4206802C0883641F4F60193FD859113
S1130B0093FF81916F018111C1CF982F9F7D9554DF
S1130B10933028F40C5F1F4FFFE3F9830DC0833635
S1130B2031F0833771F0833509F057C021C0F801E3
S1130B30808189830E5F1F4F44244394512C5401B8
S1130B4014C03801F2E06F0E711CF801A080B1806E
S1130B5026FF03C0652D70E002C06FEF7FEFC50173
S1130B602C8736D12C0183012C852F77222E16C099
S1130B703801F2E06F0E711CF801A080B18026FFED
S1130B8003C0652D70E002C06FEF7FEFC5012C87B5
S1130B9014D12C012C852068222E830123FC19C03A
S1130BA0832D90E048165906A0F4B70180E290E046
S1130BB01AD13A94F5CFF50127FC859127FE81914E
S1130BC05F01B70190E00FD131103A94F1E04F1A70
S1130BD051084114510479F7DEC0843611F0893686
S1130BE031F5F80127FF07C060817181828193810B
S1130BF00C5F1F4F08C060817181882777FD809545
S1130C00982F0E5F1F4F2F76B22E97FF09C0909535
S1130C108095709561957F4F8F4F9F4F2068B22EBE
S1130C202AE030E0A40111D1A82EA81843C08537CA
S1130C3029F42F7EB22E2AE030E025C0F22FF97F6E
S1130C40BF2E8F36C1F018F4883579F0ADC08037E7
S1130C5019F0883721F0A8C02F2F2061B22EB4FEDE
S1130C600DC08B2D8460B82E09C024FF0AC09F2FAD
S1130C709660B92E06C028E030E005C020E130E0DF
S1130C8002C020E132E0F801B7FE07C06081718143
S1130C90828193810C5F1F4F06C06081718180E067
S1130CA090E00E5F1F4FA401D0D0A82EA818FB2DF2
S1130CB0FF77BF2EB6FE0BC02B2D2E7FA51450F44C
S1130CC0B4FE0AC0B2FC08C02B2D2E7E05C07A2CBF
S1130CD02B2D03C07A2C01C0752C24FF0DC0FE01FE
S1130CE0EA0DF11D8081803311F4297E09C022FFB1
S1130CF006C07394739404C0822F867809F07394A9
S1130D0023FD12C020FF06C05A2C731418F4530C90
S1130D105718732C731460F4B70180E290E02C87A9
S1130D2062D073942C85F6CF731410F4371801C075
S1130D30312C24FF11C0B70180E390E02C8753D0FD
S1130D402C8522FF16C021FF03C088E590E002C075
S1130D5088E790E0B7010CC0822F867851F021FD1E
S1130D6002C080E201C08BE227FD8DE2B70190E072
S1130D703AD0A51430F4B70180E390E034D05A940B
S1130D80F8CFAA94F401EA0DF11D8081B70190E037
S1130D902AD0A110F6CF332009F45DCEB70180E24A
S1130DA090E021D03A94F7CFF7018681978102C071
S1130DB08FEF9FEF2C96E2E1C2C0FC0105906150D9
S1130DC070400110D8F7809590958E0F9F1F08955D
S1130DD0FC016150704001900110D8F78095909506
S1130DE08E0F9F1F08950F931F93CF93DF93182F98
S1130DF0092FEB018B8181FD03C08FEF9FEF20C092
S1130E0082FF10C04E815F812C813D8142175307C0
S1130E107CF4E881F9819F012F5F3F4F3983288358
S1130E20108306C0E885F985812F0995892B29F758
S1130E302E813F812F5F3F4F3F832E83812F902F41
S1130E40DF91CF911F910F910895FA01AA272830BD
S1130E5051F1203181F1E8946F936E7F6E5F7F4F83
S1130E608F4F9F4FAF4FB1E03ED0B4E03CD0670FFF
S1130E70781F891F9A1FA11D680F791F8A1F911D52
S1130E80A11D6A0F711D811D911DA11D20D009F4A2
S1130E9068943F912AE0269F11243019305D3193E4
S1130EA0DEF6CF010895462F4770405D4193B3E0CD
S1130EB00FD0C9F7F6CF462F4F70405D4A3318F074
S1130EC0495D31FD4052419302D0A9F7EACFB4E025
S1130ED0A6959795879577956795BA95C9F70097DD
S1130EE06105710508959B01AC010A2E069457957E
S1130EF0479537952795BA95C9F7620F731F841FD5
S1130F00951FA01D08952F923F924F925F926F926A
S1130F107F928F929F92AF92BF92CF92DF92EF9285
S1130F20FF920F931F93CF93DF93CDB7DEB7CA1B06
S1130F30DB0B0FB6F894DEBF0FBECDBF09942A8831
S1130F40398848885F846E847D848C849B84AA84D9
S1130F50B984C884DF80EE80FD800C811B81AA8166
S1130F60B981CE0FD11D0FB6F894DEBF0FBECDBF31
S10B0F70ED010895F894FFCF90
S10D0F780100010025303458000088
S9030000FC
